:060000000C9433000C9487
:10000600C8000C9400000C9400000C9400000C94A2
:1000160000000C9400000C9400000C94D1000C9489
:1000260000000C9400000C9400000C9400000C944A
:1000360000000C9400000C9400000C9400000C943A
:1000460000000C9400000C9400000C9400000000CA
:1000560005000100020054000200040056000000E2
:10006600F894EE27ECBBF1E0FBBFEBBFE5BF8DE0FC
:10007600A2E0BB27ED938A95E9F780E094E0A0E63D
:10008600ED930197E9F7E8E5F0E085919591009702
:1000960061F0A591B59105901590BF01F00105900D
:1000A6000D920197E1F7FB01F0CFEFE5EDBFE4E03C
:1000B600EEBFC0E6D1E00C948A001A930A93E1E4FD
:1000C600F0E0E419F509A8EEB3E00E94E8008F011C
:1000D600689421F81DBD0CBDEEB5E560EEBD099135
:1000E60019910895AA93E881E03079F0A881A130AA
:1000F60009F4A89AA881A23011F4A898A998A88111
:10010600A33019F4E89420F8D8DF2196089578945E
:10011600E0ECEBBFEFEFE4BBE0E0E5BBE7BBE8B349
:10012600E8BBA89AA998E9B7E460E9BF2197E0E09F
:10013600E883C89B02C0E1E0E883C99B02C0E2E015
:10014600E883CA9B02C0E3E0E883CB9B02C0E1E000
:10015600E883A881C7DF20FE02C021FE01C002C0DD
:10016600E1E001C0E0E0E03011F4A99801C0A99AED
:1001760021FE02C0E1E001C0E0E0E03011F4C098E9
:1001860001C0C09A2196D2CFFFCFEA93EFB7A89BC2
:1001960002C0689420F8EFBFE9911895EA93EFB78B
:1001A600EA93E89421F8E0E0EEBDE991EFBFE9912A
:1001B6001895F195E195F0400895FA9FF02DEB9F83
:1001C600F00DEA9FE02DF10D089504D0F6DF0EF450
:1001D600F0DF0895E894F7FF02C0EBDF6894B7FFFD
:1001E60006C0A095B095119600F8039400FA0895FC
:00000001FF
